:100000000C9434000C943E000C943E000C943E0082
:100010000C943E000C943E000C943E000C943E0068
:100020000C943E000C943E000C943E000C943E0058
:100030000C943E000C943E000C943E000C943E0048
:100040000C943E000C943E000C943E000C943E0038
:100050000C943E000C943E000C943E000C943E0028
:100060000C943E000C943E0011241FBECFEFD4E050
:10007000DEBFCDBF0E946A000C9487000C94000084
:100080002D9A2FEF81EE94E0215080409040E1F7CF
:1000900000C000002D982FEF81EE94E021508040A9
:1000A0009040E1F700C0000008952D9A2FEF86E1FF
:1000B00091E1215080409040E1F700C000002D9870
:1000C0002FEF82E597E0215080409040E1F700C09B
:1000D00000000895259A0E9440000E9440000E945E
:1000E00040000E9455000E9455000E9455000E9449
:1000F00040000E9440000E9440002FEF83ED90E3FB
:10010000215080409040E1F700C00000E4CFF89417
:02011000FFCF1F
:00000001FF
